:060000000200060202E509
:03005F000200623A
:050062001203E580FE21
:070067000000000000002270
:0C006E00AA82AB83ACF030000302010258
:04007A007D007E0087
:0E007E00C3ED9408EE6480948050618D07EE0F
:0E008C00CF25E0CF33F8EF2AFFE83BF88C01D8
:0E009A008F82888389F01203E7FFA31203E729
:0800A800F84F24FF9287D28675
:0E00B0003086FDC002C003C004C005C00612A9
:0E00BE000067D006D005D004D003D002C28661
:0E00CC00C002C003C004C005C006120067D009
:0E00DA0006D005D004D003D0020DBD00970E55
:0200E800809402
:0400EA00D287D28661
:0B00EE003086FD120067308702D20050
:0900F900C286120067900000228B
:0701020012015B90000122D5
:07010900752200752300754B
:06011000240175250075B5
:06011600260075270075AC
:06011C00280075290075A2
:060122002A01752B007597
:060128002C00752D00758E
:06012E002E00752F007584
:060134003000753100D21D
:04013A0002C200C23B
:09013E00013086161087028011C1
:09014700120067C28612006790E5
:08015000002275F04002006E70
:03015800D20122AF
:04015B00C287D286FF
:0C015F003086FD120067D287120067C2D4
:02016B0002226E
:0E016D00AA82AB83C002C003120109D003D0E6
:08017B000275320075330075B6
:0601830034007535007523
:0601890036007537007519
:0A018F003801753900EB30E7030278
:0201990002D989
:0E019B00C374099A74808BF063F08095F05065
:0401A900030202D972
:0701AD00EA2A2A9001B47355
:0701B4000201D20201ED027D
:0601BB000208020223020B
:0601C100023E0202590299
:0601C700027302028D022A
:0501CD0002A70202C1BF
:0701D200753A00753B007552
:0601D9003C00753D0075BD
:0601DF003E00753F0075B3
:0601E5004000754100021C
:0201EB0002D937
:0701ED00753A00753B007537
:0601F4003C00753D0075A2
:0601FA003E00753F007598
:06020000400175410002FF
:0202060002D91B
:07020800753A00753B00751B
:06020F003C00753D007586
:060215003E01753F00757B
:06021B00400075410002E5
:0202210002D900
:07022300753A00753B007500
:06022A003C00753D00756B
:060230003E01753F007560
:06023600400175410002C9
:02023C0002D9E5
:07023E00753A00753B0075E5
:060245003C01753D00754F
:06024B003E00753F007546
:06025100400075410002AF
:0202570002D9CA
:07025900753A00753B0075CA
:060260003C01753D007534
:060266003E00753F00752B
:07026C0040017541008066AE
:07027300753A00753B0075B0
:06027A003C01753D00751A
:060280003E01753F007510
:070286004000754100804CAF
:07028D00753A00753B007596
:060294003C01753D007500
:06029A003E01753F0075F6
:0702A00040017541008032AE
:0702A700753A01753B00757B
:0602AE003C00753D0075E7
:0602B4003E00753F0075DD
:0702BA0040007541008018AF
:0702C100753A00753B007562
:0602C8003C00753D0075CD
:0602CE003E00753F0075C3
:0502D40040017541002E
:0A02D90090003275F04012006E0232
:0202E300015BBD
:0E02E500C0E0C0F0C082C083C002C003C004ED
:0E02F300C005C006C0D075D0007A017BFF7C2C
:0103010000FB
:03030200EA605559
:0E0305003094FDE4A29033FDE4A2913325E094
:0E031300FE2DFDE4A29233FE25E025E0FE2D36
:0E032100FDE4A29333FEC40354F8FE2DFDC389
:0E032F00648094895010C374808DF063F08058
:08033D0095F050048D0380BD12
:05034500BBFF0280B8BF
:07034A00BD0B047A007C01E9
:09035100BD0CAE7A007C0080A80E
:07035A00EB30E7030203CFC3
:0E036100C374898BF063F08095F04062EB2B43
:05036F002B90037473E4
:070374000203CF0203920215
:06037B0003990203A00239
:0603810003A70203AE0217
:0603870003B50203BC02F5
:05038D0003C30203CAD6
:07039200EC24FF92A080366D
:07039900EC24FF92A1802F6C
:0703A000EC24FF92A280286B
:0703A700EC24FF92A380216A
:0703AE00EC24FF92A4801A69
:0703B500EC24FF92A5801368
:0703BC00EC24FF92A6800C67
:0703C300EC24FF92A7800566
:0503CA00EC24FF92B7D6
:0E03CF00D0D0D006D005D004D003D002D08309
:0703DD00D082D0F0D0E03225
:0103E40022F6
:0203E50080FE98
:06003500E478FFF6D8FD9F
:080013007900E94400601B7A4A
:05001B000090040778CD
:030020000075A0C8
:0A00230000E493F2A308B800020500
:08002D00A0D9F4DAF275A0FF7E
:08003B007800E84400600A7936
:030043000075A0A5
:0600460000E4F309D8FC00
:08004C007800E84400600C7923
:0B00540000900000E4F0A3D8FCD9FAF3
:03000600758141C0
:0A000900120403E5826003020062A6
:0E03E70020F71430F6148883A88220F507E66C
:0603F500A88375830022BD
:0303FB00E280F7A6
:0303FE00E4932263
:02040100E022F7
:0404030075820022DC
:00000001FF
