:03000000020003F8
:03005C0002005F40
:05005F0012053480FED3
:070064000000000000002273
:0C006B00AA82AB83ACF03000030200FF5F
:040077007D007E008A
:0E007B00C3ED9408EE6480948050618D07EE12
:0E008900CF25E0CF33F8EF2AFFE83BF88C01DB
:0E0097008F82888389F012055EFFA312055E3A
:0800A500F84F24FF9287D28678
:0E00AD003086FDC002C003C004C005C00612AC
:0E00BB000064D006D005D004D003D002C28667
:0E00C900C002C003C004C005C006120064D00F
:0E00D70006D005D004D003D0020DBD00970E58
:0200E500809405
:0400E700D287D28664
:0B00EB003086FD120064308702D20056
:0900F600C2861200649000002291
:0700FF0012015890000122DC
:07010600752200752300754E
:06010D00240175250075B8
:06011300260075270075AF
:06011900280075290075A5
:06011F002A01752B00759A
:060125002C00752D007591
:06012B002E00752F007587
:060131003000753100D220
:0401370002C200C23E
:09013B00013086161087028011C4
:09014400120064C28612006490EE
:08014D00002275F04002006B76
:03015500D20122B2
:04015800C287D28602
:0C015C003086FD120064D287120064C2DD
:02016800022271
:0E016A00AA82AB83C002C003120106D003D0EC
:080178000275320075330075B9
:0601800034007535007526
:060186003600753700751C
:0A018C003801753900EB30E703027B
:0201960002D68F
:0E019800C374099A74808BF063F08095F05068
:0401A600030202D678
:0701AA00EA2A2A9001B1735B
:0701B1000201CF0201EA0286
:0601B80002050202200214
:0601BE00023B02025602A2
:0601C400027002028A0233
:0501CA0002A40202BEC8
:0701CF00753A00753B007555
:0601D6003C00753D0075C0
:0601DC003E00753F0075B6
:0601E2004000754100021F
:0201E80002D63D
:0701EA00753A00753B00753A
:0601F1003C00753D0075A5
:0601F7003E00753F00759B
:0601FD0040017541000203
:0202030002D621
:07020500753A00753B00751E
:06020C003C00753D007589
:060212003E01753F00757E
:06021800400075410002E8
:02021E0002D606
:07022000753A00753B007503
:060227003C00753D00756E
:06022D003E01753F007563
:06023300400175410002CC
:0202390002D6EB
:07023B00753A00753B0075E8
:060242003C01753D007552
:060248003E00753F007549
:06024E00400075410002B2
:0202540002D6D0
:07025600753A00753B0075CD
:06025D003C01753D007537
:060263003E00753F00752E
:0702690040017541008066B1
:07027000753A00753B0075B3
:060277003C01753D00751D
:06027D003E01753F007513
:070283004000754100804CB2
:07028A00753A00753B007599
:060291003C01753D007503
:060297003E01753F0075F9
:07029D0040017541008032B1
:0702A400753A01753B00757E
:0602AB003C00753D0075EA
:0602B1003E00753F0075E0
:0702B70040007541008018B2
:0702BE00753A00753B007565
:0602C5003C00753D0075D0
:0602CB003E00753F0075C6
:0502D100400175410031
:0A02D60090003275F04012006B1228
:0602E00001587A507BC3B7
:0E02E600C002C003120064D003D0021ABAFF97
:0202F400011BEC
:0502F600EA4B70EC2250
:0C02FB007A017BFF7C00D2807D507EC326
:0E030700C002C003C004C005C006120064D0CE
:0E03150006D005D004D003D0021DBDFF011E8E
:08032300ED4E70E07D507EC339
:0E032B00C002C003C004C005C006120064D0AA
:0E03390006D005D004D003D0021DBDFF011E6A
:0D034700ED4E70E0C280C002C003C0041281
:0C0354000064D004D003D002D281D28615
:06036000EA70030203D85D
:02036600D2873C
:0E0368003094FDC283E4A29033FDE4A29133F1
:0E03760025E0FE2DFDE4A29233FE25E025E0F9
:0E038400FE2DFDE4A29333FEC40354F8FE2DBB
:0E039200FDC374898DF063F08095F040117406
:0E03A000808DF063F08095F050068D03C284CE
:0203AE0080B01D
:0503B000BBFF0280AB61
:0903B500BD0B067A007C01C28533
:0903BE00BD0C067A007C00C2852A
:0503C700BD0A028003E5
:0303CC00020360C9
:0903CF007A007C02C28502036081
:0503D800BC02028003DD
:0303DD000204B760
:0703E000EB30E70302052EDC
:0D03E700C374898BF063F08095F050030221
:0203F400052ED4
:0703F600EB2B2B9003FD73BC
:0703FD000204B402041B021C
:06040400042C02043D027D
:06040A00044E02045F0233
:06041000047002048102E9
:0504160004920204A3A2
:0E041B00E4A2A033FA7D008A828D8312016A6A
:0304290002052E9B
:0E042C00E4A2A133FA7D008A828D8312016A58
:03043A0002052E8A
:0E043D00E4A2A233FA7D008A828D8312016A46
:03044B0002052E79
:0E044E00E4A2A333FA7D008A828D8312016A34
:03045C0002052E68
:0E045F00E4A2A433FA7D008A828D8312016A22
:03046D0002052E57
:0E047000E4A2A533FA7D008A828D8312016A10
:03047E0002052E46
:0E048100E4A2A633FA7D008A828D8312016AFE
:03048F0002052E35
:0E049200E4A2A733FA7D008A828D8312016AEC
:0304A00002052E24
:0E04A300E4A2B733FA7D008A828D8312016ACB
:0304B10002052E13
:0304B40002052E10
:0904B700C286EB30E70302052EBA
:0E04C000C374898BF063F08095F04062EB2BE3
:0504CE002B9004D37324
:0704D30002052E0204F102F4
:0604DA0004F80204FF0219
:0604E000050602050D02F5
:0604E600051402051B02D3
:0504EC000522020529B4
:0704F100EC24FF92A080360D
:0704F800EC24FF92A1802F0C
:0704FF00EC24FF92A280280B
:07050600EC24FF92A3802109
:07050D00EC24FF92A4801A08
:07051400EC24FF92A5801307
:07051B00EC24FF92A6800C06
:07052200EC24FF92A7800505
:05052900EC24FF92B775
:05052E00C281C287221A
:0105330022A5
:0E053400C2A0C2A1C2A2C2A3C2A4C2A5C2A6F6
:0E054200C2A7C2B7C283C284C285C286C28766
:02055000D28354
:02055200D28451
:0A0554003082FDD2851202FB80F414
:06003200E478FFF6D8FDA2
:080010007900E94400601B7A4D
:050018000090057E7858
:03001D000075A0CB
:0A00200000E493F2A308B800020503
:08002A00A0D9F4DAF275A0FF81
:080038007800E84400600A7939
:030040000075A0A8
:0600430000E4F309D8FC03
:080049007800E84400600C7926
:0B00510000900000E4F0A3D8FCD9FAF6
:03000300758141C3
:0A00060012057AE582600302005F34
:0E055E0020F71430F6148883A88220F507E6F3
:06056C00A8837583002244
:03057200E280F72D
:03057500E49322EA
:02057800E0227F
:04057A007582002264
:00000001FF
